{
  "contractName": "fastCoinMain",
  "abi": [
    {
      "constant": true,
      "inputs": [],
      "name": "owner",
      "outputs": [
        {
          "internalType": "address",
          "name": "",
          "type": "address"
        }
      ],
      "payable": false,
      "stateMutability": "view",
      "type": "function"
    },
    {
      "inputs": [],
      "payable": false,
      "stateMutability": "nonpayable",
      "type": "constructor"
    },
    {
      "payable": true,
      "stateMutability": "payable",
      "type": "fallback"
    },
    {
      "constant": false,
      "inputs": [
        {
          "internalType": "address",
          "name": "sideContract",
          "type": "address"
        }
      ],
      "name": "setContractAddress",
      "outputs": [],
      "payable": false,
      "stateMutability": "nonpayable",
      "type": "function"
    },
    {
      "constant": true,
      "inputs": [],
      "name": "lastDepositAmount",
      "outputs": [
        {
          "internalType": "uint256",
          "name": "",
          "type": "uint256"
        }
      ],
      "payable": false,
      "stateMutability": "view",
      "type": "function"
    },
    {
      "constant": true,
      "inputs": [],
      "name": "lastDepositNonce",
      "outputs": [
        {
          "internalType": "uint256",
          "name": "",
          "type": "uint256"
        }
      ],
      "payable": false,
      "stateMutability": "view",
      "type": "function"
    },
    {
      "constant": true,
      "inputs": [],
      "name": "lastDepositSig",
      "outputs": [
        {
          "internalType": "bytes",
          "name": "",
          "type": "bytes"
        }
      ],
      "payable": false,
      "stateMutability": "view",
      "type": "function"
    },
    {
      "constant": true,
      "inputs": [
        {
          "internalType": "address",
          "name": "user",
          "type": "address"
        }
      ],
      "name": "generateMessage",
      "outputs": [
        {
          "internalType": "bytes32",
          "name": "",
          "type": "bytes32"
        }
      ],
      "payable": false,
      "stateMutability": "view",
      "type": "function"
    },
    {
      "constant": false,
      "inputs": [
        {
          "internalType": "bytes",
          "name": "signing",
          "type": "bytes"
        },
        {
          "internalType": "address",
          "name": "user",
          "type": "address"
        }
      ],
      "name": "sign",
      "outputs": [],
      "payable": false,
      "stateMutability": "nonpayable",
      "type": "function"
    },
    {
      "constant": false,
      "inputs": [
        {
          "internalType": "bytes",
          "name": "signing",
          "type": "bytes"
        },
        {
          "internalType": "uint256",
          "name": "amount",
          "type": "uint256"
        }
      ],
      "name": "transfer",
      "outputs": [],
      "payable": true,
      "stateMutability": "payable",
      "type": "function"
    },
    {
      "constant": true,
      "inputs": [],
      "name": "lastWithdrawNonce",
      "outputs": [
        {
          "internalType": "uint256",
          "name": "",
          "type": "uint256"
        }
      ],
      "payable": false,
      "stateMutability": "view",
      "type": "function"
    },
    {
      "constant": false,
      "inputs": [],
      "name": "updateWithdrawNonce",
      "outputs": [],
      "payable": false,
      "stateMutability": "nonpayable",
      "type": "function"
    }
  ],
  "bytecode": "0x608060405234801561001057600080fd5b50336000806101000a81548173ffffffffffffffffffffffffffffffffffffffff021916908373ffffffffffffffffffffffffffffffffffffffff160217905550611410806100606000396000f3fe6080604052600436106100915760003560e01c8063ad00998d11610059578063ad00998d14610258578063b017b4411461026f578063bb37177b146102ac578063c1056539146102d7578063e44026a71461030257610091565b8063477bddaa1461019257806355b153e0146101bb57806359928d62146101e65780638da5cb5b14610202578063a869fb7a1461022d575b34600260003373ffffffffffffffffffffffffffffffffffffffff1673ffffffffffffffffffffffffffffffffffffffff16815260200190815260200160002060000181905550600260003373ffffffffffffffffffffffffffffffffffffffff1673ffffffffffffffffffffffffffffffffffffffff1681526020019081526020016000206001016000815480929190600101919050555060405180602001604052806000815250600260003373ffffffffffffffffffffffffffffffffffffffff1673ffffffffffffffffffffffffffffffffffffffff168152602001908152602001600020600201908051906020019061018f929190610c1c565b50005b34801561019e57600080fd5b506101b960048036036101b49190810190610db5565b61032b565b005b3480156101c757600080fd5b506101d06103fe565b6040516101dd9190611228565b60405180910390f35b61020060048036036101fb9190810190610e36565b610448565b005b34801561020e57600080fd5b506102176107b9565b604051610224919061112b565b60405180910390f35b34801561023957600080fd5b506102426107de565b60405161024f9190611228565b60405180910390f35b34801561026457600080fd5b5061026d610828565b005b34801561027b57600080fd5b5061029660048036036102919190810190610db5565b61087c565b6040516102a39190611146565b60405180910390f35b3480156102b857600080fd5b506102c1610936565b6040516102ce91906111a6565b60405180910390f35b3480156102e357600080fd5b506102ec610a18565b6040516102f99190611228565b60405180910390f35b34801561030e57600080fd5b5061032960048036036103249190810190610dde565b610a62565b005b6000809054906101000a900473ffffffffffffffffffffffffffffffffffffffff1673ffffffffffffffffffffffffffffffffffffffff163373ffffffffffffffffffffffffffffffffffffffff16146103ba576040517f08c379a00000000000000000000000000000000000000000000000000000000081526004016103b1906111c8565b60405180910390fd5b80600160006101000a81548173ffffffffffffffffffffffffffffffffffffffff021916908373ffffffffffffffffffffffffffffffffffffffff16021790555050565b6000600260003373ffffffffffffffffffffffffffffffffffffffff1673ffffffffffffffffffffffffffffffffffffffff16815260200190815260200160002060000154905090565b600033826001600360003373ffffffffffffffffffffffffffffffffffffffff1673ffffffffffffffffffffffffffffffffffffffff1681526020019081526020016000206001015401600160009054906101000a900473ffffffffffffffffffffffffffffffffffffffff166040516020016104c89493929190611067565b604051602081830303815290604052805190602001209050600080600061053287878080601f016020809104026020016040519081016040528093929190818152602001838380828437600081840152601f19601f82011690508083019250505050505050610be1565b92509250925060606040518060400160405280601c81526020017f19457468657265756d205369676e6564204d6573736167653a0a333200000000815250905060008186604051602001610587929190611103565b6040516020818303038152906040528051906020012090506000809054906101000a900473ffffffffffffffffffffffffffffffffffffffff1673ffffffffffffffffffffffffffffffffffffffff16600182878787604051600081526020016040526040516105fa9493929190611161565b6020604051602081039080840390855afa15801561061c573d6000803e3d6000fd5b5050506020604051035173ffffffffffffffffffffffffffffffffffffffff161461067c576040517f08c379a0000000000000000000000000000000000000000000000000000000008152600401610673906111e8565b60405180910390fd5b86600360003373ffffffffffffffffffffffffffffffffffffffff1673ffffffffffffffffffffffffffffffffffffffff16815260200190815260200160002060000181905550600360003373ffffffffffffffffffffffffffffffffffffffff1673ffffffffffffffffffffffffffffffffffffffff168152602001908152602001600020600101600081548092919060010191905055508888600360003373ffffffffffffffffffffffffffffffffffffffff1673ffffffffffffffffffffffffffffffffffffffff1681526020019081526020016000206002019190610766929190610c9c565b503373ffffffffffffffffffffffffffffffffffffffff166108fc889081150290604051600060405180830381858888f193505050501580156107ad573d6000803e3d6000fd5b50505050505050505050565b6000809054906101000a900473ffffffffffffffffffffffffffffffffffffffff1681565b6000600260003373ffffffffffffffffffffffffffffffffffffffff1673ffffffffffffffffffffffffffffffffffffffff16815260200190815260200160002060010154905090565b600360003373ffffffffffffffffffffffffffffffffffffffff1673ffffffffffffffffffffffffffffffffffffffff16815260200190815260200160002060010160008154809291906001019190505550565b600081600260008473ffffffffffffffffffffffffffffffffffffffff1673ffffffffffffffffffffffffffffffffffffffff16815260200190815260200160002060000154600260008573ffffffffffffffffffffffffffffffffffffffff1673ffffffffffffffffffffffffffffffffffffffff168152602001908152602001600020600101543060405160200161091994939291906110b5565b604051602081830303815290604052805190602001209050919050565b6060600260003373ffffffffffffffffffffffffffffffffffffffff1673ffffffffffffffffffffffffffffffffffffffff1681526020019081526020016000206002018054600181600116156101000203166002900480601f016020809104026020016040519081016040528092919081815260200182805460018160011615610100020316600290048015610a0e5780601f106109e357610100808354040283529160200191610a0e565b820191906000526020600020905b8154815290600101906020018083116109f157829003601f168201915b5050505050905090565b6000600360003373ffffffffffffffffffffffffffffffffffffffff1673ffffffffffffffffffffffffffffffffffffffff16815260200190815260200160002060010154905090565b6000809054906101000a900473ffffffffffffffffffffffffffffffffffffffff1673ffffffffffffffffffffffffffffffffffffffff163373ffffffffffffffffffffffffffffffffffffffff1614610af1576040517f08c379a0000000000000000000000000000000000000000000000000000000008152600401610ae8906111c8565b60405180910390fd5b6000600260008373ffffffffffffffffffffffffffffffffffffffff1673ffffffffffffffffffffffffffffffffffffffff16815260200190815260200160002060020180546001816001161561010002031660029004905014610b8a576040517f08c379a0000000000000000000000000000000000000000000000000000000008152600401610b8190611208565b60405180910390fd5b8282600260008473ffffffffffffffffffffffffffffffffffffffff1673ffffffffffffffffffffffffffffffffffffffff1681526020019081526020016000206002019190610bdb929190610c9c565b50505050565b60008060006041845114610bf457600080fd5b6020840151915060408401519050606084015160001a92508282829250925092509193909250565b828054600181600116156101000203166002900490600052602060002090601f016020900481019282601f10610c5d57805160ff1916838001178555610c8b565b82800160010185558215610c8b579182015b82811115610c8a578251825591602001919060010190610c6f565b5b509050610c989190610d1c565b5090565b828054600181600116156101000203166002900490600052602060002090601f016020900481019282601f10610cdd57803560ff1916838001178555610d0b565b82800160010185558215610d0b579182015b82811115610d0a578235825591602001919060010190610cef565b5b509050610d189190610d1c565b5090565b610d3e91905b80821115610d3a576000816000905550600101610d22565b5090565b90565b600081359050610d508161139f565b92915050565b60008083601f840112610d6857600080fd5b8235905067ffffffffffffffff811115610d8157600080fd5b602083019150836001820283011115610d9957600080fd5b9250929050565b600081359050610daf816113b6565b92915050565b600060208284031215610dc757600080fd5b6000610dd584828501610d41565b91505092915050565b600080600060408486031215610df357600080fd5b600084013567ffffffffffffffff811115610e0d57600080fd5b610e1986828701610d56565b93509350506020610e2c86828701610d41565b9150509250925092565b600080600060408486031215610e4b57600080fd5b600084013567ffffffffffffffff811115610e6557600080fd5b610e7186828701610d56565b93509350506020610e8486828701610da0565b9150509250925092565b610e9f610e9a8261128d565b611349565b82525050565b610eae8161127b565b82525050565b610ec5610ec08261127b565b611337565b82525050565b610ed48161129f565b82525050565b610eeb610ee68261129f565b61135b565b82525050565b6000610efc82611243565b610f06818561124e565b9350610f16818560208601611304565b610f1f81611381565b840191505092915050565b6000610f3582611243565b610f3f818561125f565b9350610f4f818560208601611304565b80840191505092915050565b610f6c610f67826112e0565b611349565b82525050565b6000610f7f601a8361126a565b91507f566f7573206e276176657a20706173206c65732064726f6974730000000000006000830152602082019050919050565b6000610fbf601e8361126a565b91507f4c61207369676e6174757265206e6520636f72726573706f6e642070617300006000830152602082019050919050565b6000610fff601c8361126a565b91507f556e65207369676e6174757265206578697374652064c3a96ac3a02e000000006000830152602082019050919050565b61103b816112c9565b82525050565b61105261104d826112c9565b611377565b82525050565b611061816112d3565b82525050565b60006110738287610e8e565b6014820191506110838286611041565b6020820191506110938285611041565b6020820191506110a38284610eb4565b60148201915081905095945050505050565b60006110c18287610eb4565b6014820191506110d18286611041565b6020820191506110e18285611041565b6020820191506110f18284610f5b565b60148201915081905095945050505050565b600061110f8285610f2a565b915061111b8284610eda565b6020820191508190509392505050565b60006020820190506111406000830184610ea5565b92915050565b600060208201905061115b6000830184610ecb565b92915050565b60006080820190506111766000830187610ecb565b6111836020830186611058565b6111906040830185610ecb565b61119d6060830184610ecb565b95945050505050565b600060208201905081810360008301526111c08184610ef1565b905092915050565b600060208201905081810360008301526111e181610f72565b9050919050565b6000602082019050818103600083015261120181610fb2565b9050919050565b6000602082019050818103600083015261122181610ff2565b9050919050565b600060208201905061123d6000830184611032565b92915050565b600081519050919050565b600082825260208201905092915050565b600081905092915050565b600082825260208201905092915050565b6000611286826112a9565b9050919050565b6000611298826112a9565b9050919050565b6000819050919050565b600073ffffffffffffffffffffffffffffffffffffffff82169050919050565b6000819050919050565b600060ff82169050919050565b60006112eb826112f2565b9050919050565b60006112fd826112a9565b9050919050565b60005b83811015611322578082015181840152602081019050611307565b83811115611331576000848401525b50505050565b600061134282611365565b9050919050565b600061135482611365565b9050919050565b6000819050919050565b600061137082611392565b9050919050565b6000819050919050565b6000601f19601f8301169050919050565b60008160601b9050919050565b6113a88161127b565b81146113b357600080fd5b50565b6113bf816112c9565b81146113ca57600080fd5b5056fea365627a7a723158205c676e1bedb753102d5e76995465a4c1ac909ea5b60e61a5ae21c5372f98746e6c6578706572696d656e74616cf564736f6c634300050b0040",
  "source": "pragma solidity 0.5.11;\r\npragma experimental ABIEncoderV2;\r\n\r\n/// @author Hany Salah\r\n/// @title Contrat type fastCoinMain\r\ncontract fastCoinMain {\r\n\r\n    /// @notice propriétaire du contrat\r\n    address public owner;\r\n\r\n    ///@notice  adresse du contrat côté side chain\r\n    address private sideChainContract;\r\n\r\n    /// @notice Variable qui recense chaque dépôt ou retrait d'ether\r\n    struct carac {\r\n        uint256 amount;\r\n        uint256 nonce;\r\n        bytes signature;\r\n    }\r\n    mapping(address => carac) private depositBalance;\r\n    mapping(address => carac) private withdrawBalance;\r\n\r\n    ///@notice modifier qui vérifie que le msg.sender = owner\r\n        modifier isOwner() {\r\n            require(msg.sender == owner, \"Vous n'avez pas les droits\");\r\n            _;\r\n        }\r\n\r\n    constructor() public {\r\n        owner = msg.sender;\r\n    }\r\n\r\n         /// @notice configure l'adresse des contrats\r\n        function setContractAddress(address sideContract) isOwner() external {\r\n            sideChainContract = sideContract;\r\n        }\r\n\r\n        /// @notice déposer de l'ether\r\n        function() external payable {\r\n            depositBalance[msg.sender].amount = msg.value;\r\n            depositBalance[msg.sender].nonce ++;\r\n            depositBalance[msg.sender].signature = \"\";\r\n        }\r\n\r\n        /// @notice voir le montant de son dernier dépôt\r\n        function lastDepositAmount() public view returns (uint256) {\r\n            return depositBalance[msg.sender].amount;\r\n        }\r\n\r\n        /// @notice voir le numéro du dernier dépôt\r\n        function lastDepositNonce() public view returns (uint256) {\r\n            return depositBalance[msg.sender].nonce;\r\n        }\r\n\r\n        /// @notice voir la signature de son dernier dépôt\r\n        function lastDepositSig() public view returns (bytes memory) {\r\n            return depositBalance[msg.sender].signature;\r\n        }\r\n\r\n        /// @notice Générer un message à signer pour un user\r\n        function generateMessage(address user) public view returns (bytes32) {\r\n           return keccak256(abi.encodePacked(user, depositBalance[user].amount, depositBalance[user].nonce, this));\r\n        }\r\n\r\n        /// @notice signer un message accessible seulement par le owner\r\n        function sign(bytes calldata signing, address user) isOwner() external {\r\n            require(depositBalance[user].signature.length == 0, \"Une signature existe déjà.\");\r\n            depositBalance[user].signature = signing;\r\n        }\r\n\r\n        /// @notice retirer ses ether\r\n        function transfer(bytes calldata signing, uint256 amount) external payable {\r\n            bytes32 userMsg = keccak256(abi.encodePacked(msg.sender, amount, withdrawBalance[msg.sender].nonce + 1, sideChainContract));\r\n            (uint8 v, bytes32 r, bytes32 s) = splitSignature(signing);\r\n            bytes memory prefix = \"\\x19Ethereum Signed Message:\\n32\";\r\n            bytes32 prefixedHash = keccak256(abi.encodePacked(prefix, userMsg));\r\n            require(ecrecover(prefixedHash, v, r, s) == owner, \"La signature ne correspond pas\");\r\n                withdrawBalance[msg.sender].amount = amount;\r\n                withdrawBalance[msg.sender].nonce ++;\r\n                withdrawBalance[msg.sender].signature = signing;\r\n                msg.sender.transfer(amount);\r\n        }\r\n\r\n        /// @notice décompose la signature pour pouvoir identifier le signataire\r\n        function splitSignature(bytes memory sig) internal pure returns (uint8 v, bytes32 r, bytes32 s) {\r\n        require(sig.length == 65);\r\n        assembly {\r\n            // premiers 32 octets, après le préfixe\r\n            r := mload(add(sig, 32))\r\n            // 32 octets suivants\r\n            s := mload(add(sig, 64))\r\n            // Octet final (premier du prochain lot de 32)\r\n            v := byte(0, mload(add(sig, 96)))\r\n        }\r\n\r\n        return (v, r, s);\r\n    }\r\n\r\n        ///@notice voir le numéro du dernier retrait\r\n        function lastWithdrawNonce() public view returns (uint256) {\r\n            return withdrawBalance[msg.sender].nonce;\r\n        }\r\n\r\n        ///@notice ajouter 1 au nonce: permet de s'aligner avec le nonce de la side chain si besoin\r\n        function updateWithdrawNonce() external {\r\n            withdrawBalance[msg.sender].nonce ++;\r\n        }\r\n}",
  "sourcePath": "C:/Users/admin/Documents/Alyra/ProjetGit/hany-s/projet/testSmartContract/contracts/mainContract.sol",
  "compiler": {
    "name": "solc",
    "version": "0.5.11+commit.c082d0b4.Emscripten.clang"
  },
  "schemaVersion": "3.0.19",
  "updatedAt": "2020-02-02T12:15:31.309Z",
  "devdoc": {
    "methods": {},
    "title": "Contrat type fastCoinMain"
  },
  "userdoc": {
    "methods": {
      "generateMessage(address)": {
        "notice": "Générer un message à signer pour un user"
      },
      "lastDepositAmount()": {
        "notice": "voir le montant de son dernier dépôt"
      },
      "lastDepositNonce()": {
        "notice": "voir le numéro du dernier dépôt"
      },
      "lastDepositSig()": {
        "notice": "voir la signature de son dernier dépôt"
      },
      "lastWithdrawNonce()": {
        "notice": "voir le numéro du dernier retrait"
      },
      "setContractAddress(address)": {
        "notice": "configure l'adresse des contrats"
      },
      "sign(bytes,address)": {
        "notice": "signer un message accessible seulement par le owner"
      },
      "transfer(bytes,uint256)": {
        "notice": "retirer ses ether"
      },
      "updateWithdrawNonce()": {
        "notice": "ajouter 1 au nonce: permet de s'aligner avec le nonce de la side chain si besoin"
      }
    }
  }
}