{
  "contractName": "fastCoinSide",
  "abi": [
    {
      "constant": true,
      "inputs": [],
      "name": "owner",
      "outputs": [
        {
          "internalType": "address",
          "name": "",
          "type": "address"
        }
      ],
      "payable": false,
      "stateMutability": "view",
      "type": "function"
    },
    {
      "inputs": [
        {
          "internalType": "string",
          "name": "message",
          "type": "string"
        }
      ],
      "payable": false,
      "stateMutability": "nonpayable",
      "type": "constructor"
    },
    {
      "payable": true,
      "stateMutability": "payable",
      "type": "fallback"
    },
    {
      "constant": false,
      "inputs": [
        {
          "internalType": "address",
          "name": "mainContrat",
          "type": "address"
        }
      ],
      "name": "setContractAddress",
      "outputs": [],
      "payable": false,
      "stateMutability": "nonpayable",
      "type": "function"
    },
    {
      "constant": false,
      "inputs": [
        {
          "internalType": "bytes32",
          "name": "message",
          "type": "bytes32"
        },
        {
          "internalType": "uint256",
          "name": "amount",
          "type": "uint256"
        }
      ],
      "name": "transfer",
      "outputs": [],
      "payable": true,
      "stateMutability": "payable",
      "type": "function"
    },
    {
      "constant": true,
      "inputs": [],
      "name": "lastDepositNonce",
      "outputs": [
        {
          "internalType": "uint256",
          "name": "",
          "type": "uint256"
        }
      ],
      "payable": false,
      "stateMutability": "view",
      "type": "function"
    },
    {
      "constant": true,
      "inputs": [],
      "name": "lastDepositAmount",
      "outputs": [
        {
          "internalType": "uint256",
          "name": "",
          "type": "uint256"
        }
      ],
      "payable": false,
      "stateMutability": "view",
      "type": "function"
    },
    {
      "constant": false,
      "inputs": [],
      "name": "updateDepositNonce",
      "outputs": [],
      "payable": false,
      "stateMutability": "nonpayable",
      "type": "function"
    },
    {
      "constant": true,
      "inputs": [],
      "name": "lastWithdrawAmount",
      "outputs": [
        {
          "internalType": "uint256",
          "name": "",
          "type": "uint256"
        }
      ],
      "payable": false,
      "stateMutability": "view",
      "type": "function"
    },
    {
      "constant": true,
      "inputs": [],
      "name": "lastWithdrawNonce",
      "outputs": [
        {
          "internalType": "uint256",
          "name": "",
          "type": "uint256"
        }
      ],
      "payable": false,
      "stateMutability": "view",
      "type": "function"
    },
    {
      "constant": true,
      "inputs": [],
      "name": "generateMessage",
      "outputs": [
        {
          "internalType": "bytes32",
          "name": "",
          "type": "bytes32"
        }
      ],
      "payable": false,
      "stateMutability": "view",
      "type": "function"
    }
  ],
  "bytecode": "0x60806040523480156200001157600080fd5b5060405162000efc38038062000efc8339818101604052620000379190810190620001a2565b336000806101000a81548173ffffffffffffffffffffffffffffffffffffffff021916908373ffffffffffffffffffffffffffffffffffffffff16021790555080600290805190602001906200008f92919062000097565b505062000278565b828054600181600116156101000203166002900490600052602060002090601f016020900481019282601f10620000da57805160ff19168380011785556200010b565b828001600101855582156200010b579182015b828111156200010a578251825591602001919060010190620000ed565b5b5090506200011a91906200011e565b5090565b6200014391905b808211156200013f57600081600090555060010162000125565b5090565b90565b600082601f8301126200015857600080fd5b81516200016f620001698262000215565b620001e7565b915080825260208301602083018583830111156200018c57600080fd5b6200019983828462000242565b50505092915050565b600060208284031215620001b557600080fd5b600082015167ffffffffffffffff811115620001d057600080fd5b620001de8482850162000146565b91505092915050565b6000604051905081810181811067ffffffffffffffff821117156200020b57600080fd5b8060405250919050565b600067ffffffffffffffff8211156200022d57600080fd5b601f19601f8301169050602081019050919050565b60005b838110156200026257808201518184015260208101905062000245565b8381111562000272576000848401525b50505050565b610c7480620002886000396000f3fe6080604052600436106100865760003560e01c8063879f3a0811610059578063879f3a08146101bc5780638da5cb5b146101d3578063a869fb7a146101fe578063b831461e14610229578063c10565391461025457610086565b8063477bddaa1461012157806355b153e01461014a5780636a467394146101755780636cd00b5514610191575b34600460003373ffffffffffffffffffffffffffffffffffffffff1673ffffffffffffffffffffffffffffffffffffffff16815260200190815260200160002060000181905550600460003373ffffffffffffffffffffffffffffffffffffffff1673ffffffffffffffffffffffffffffffffffffffff16815260200190815260200160002060010160008154809291906001019190505550005b34801561012d57600080fd5b50610148600480360361014391908101906107af565b61027f565b005b34801561015657600080fd5b5061015f610352565b60405161016c9190610ad7565b60405180910390f35b61018f600480360361018a91908101906107d8565b61039c565b005b34801561019d57600080fd5b506101a661055e565b6040516101b39190610a7c565b60405180910390f35b3480156101c857600080fd5b506101d1610619565b005b3480156101df57600080fd5b506101e861066d565b6040516101f59190610a61565b60405180910390f35b34801561020a57600080fd5b50610213610692565b6040516102209190610ad7565b60405180910390f35b34801561023557600080fd5b5061023e6106dc565b60405161024b9190610ad7565b60405180910390f35b34801561026057600080fd5b50610269610726565b6040516102769190610ad7565b60405180910390f35b6000809054906101000a900473ffffffffffffffffffffffffffffffffffffffff1673ffffffffffffffffffffffffffffffffffffffff163373ffffffffffffffffffffffffffffffffffffffff161461030e576040517f08c379a000000000000000000000000000000000000000000000000000000000815260040161030590610a97565b60405180910390fd5b80600160006101000a81548173ffffffffffffffffffffffffffffffffffffffff021916908373ffffffffffffffffffffffffffffffffffffffff16021790555050565b6000600360003373ffffffffffffffffffffffffffffffffffffffff1673ffffffffffffffffffffffffffffffffffffffff16815260200190815260200160002060000154905090565b600033826001600360003373ffffffffffffffffffffffffffffffffffffffff1673ffffffffffffffffffffffffffffffffffffffff1681526020019081526020016000206001015401600160009054906101000a900473ffffffffffffffffffffffffffffffffffffffff16600260405160200161041f9594939291906109ab565b604051602081830303815290604052805190602001209050828114610479576040517f08c379a000000000000000000000000000000000000000000000000000000000815260040161047090610ab7565b60405180910390fd5b81600360003373ffffffffffffffffffffffffffffffffffffffff1673ffffffffffffffffffffffffffffffffffffffff16815260200190815260200160002060000181905550600360003373ffffffffffffffffffffffffffffffffffffffff1673ffffffffffffffffffffffffffffffffffffffff168152602001908152602001600020600101600081548092919060010191905055503373ffffffffffffffffffffffffffffffffffffffff166108fc839081150290604051600060405180830381858888f19350505050158015610558573d6000803e3d6000fd5b50505050565b600033600460003373ffffffffffffffffffffffffffffffffffffffff1673ffffffffffffffffffffffffffffffffffffffff16815260200190815260200160002060000154600460003373ffffffffffffffffffffffffffffffffffffffff1673ffffffffffffffffffffffffffffffffffffffff168152602001908152602001600020600101543060026040516020016105fe959493929190610a06565b60405160208183030381529060405280519060200120905090565b600360003373ffffffffffffffffffffffffffffffffffffffff1673ffffffffffffffffffffffffffffffffffffffff16815260200190815260200160002060010160008154809291906001019190505550565b6000809054906101000a900473ffffffffffffffffffffffffffffffffffffffff1681565b6000600360003373ffffffffffffffffffffffffffffffffffffffff1673ffffffffffffffffffffffffffffffffffffffff16815260200190815260200160002060010154905090565b6000600460003373ffffffffffffffffffffffffffffffffffffffff1673ffffffffffffffffffffffffffffffffffffffff16815260200190815260200160002060000154905090565b6000600460003373ffffffffffffffffffffffffffffffffffffffff1673ffffffffffffffffffffffffffffffffffffffff16815260200190815260200160002060010154905090565b60008135905061077f81610bec565b92915050565b60008135905061079481610c03565b92915050565b6000813590506107a981610c1a565b92915050565b6000602082840312156107c157600080fd5b60006107cf84828501610770565b91505092915050565b600080604083850312156107eb57600080fd5b60006107f985828601610785565b925050602061080a8582860161079a565b9150509250929050565b61082561082082610b35565b610bb1565b82525050565b61083481610b23565b82525050565b61084b61084682610b23565b610b9f565b82525050565b61085a81610b47565b82525050565b61087161086c82610b7b565b610bb1565b82525050565b60008154600181166000811461089457600181146108b9576108fd565b607f60028304166108a58187610b18565b955060ff19831686528086019350506108fd565b600282046108c78187610b18565b95506108d285610af2565b60005b828110156108f4578154818901526001820191506020810190506108d5565b82880195505050505b505092915050565b6000610912601a83610b07565b91507f566f7573206e276176657a20706173206c65732064726f6974730000000000006000830152602082019050919050565b6000610952602083610b07565b91507f566f747265206d657373616765206e276573742070617320636f72726563742e6000830152602082019050919050565b61098e81610b71565b82525050565b6109a56109a082610b71565b610bd5565b82525050565b60006109b78288610814565b6014820191506109c78287610994565b6020820191506109d78286610994565b6020820191506109e7828561083a565b6014820191506109f78284610877565b91508190509695505050505050565b6000610a128288610814565b601482019150610a228287610994565b602082019150610a328286610994565b602082019150610a428285610860565b601482019150610a528284610877565b91508190509695505050505050565b6000602082019050610a76600083018461082b565b92915050565b6000602082019050610a916000830184610851565b92915050565b60006020820190508181036000830152610ab081610905565b9050919050565b60006020820190508181036000830152610ad081610945565b9050919050565b6000602082019050610aec6000830184610985565b92915050565b60008190508160005260206000209050919050565b600082825260208201905092915050565b600081905092915050565b6000610b2e82610b51565b9050919050565b6000610b4082610b51565b9050919050565b6000819050919050565b600073ffffffffffffffffffffffffffffffffffffffff82169050919050565b6000819050919050565b6000610b8682610b8d565b9050919050565b6000610b9882610b51565b9050919050565b6000610baa82610bc3565b9050919050565b6000610bbc82610bc3565b9050919050565b6000610bce82610bdf565b9050919050565b6000819050919050565b60008160601b9050919050565b610bf581610b23565b8114610c0057600080fd5b50565b610c0c81610b47565b8114610c1757600080fd5b50565b610c2381610b71565b8114610c2e57600080fd5b5056fea365627a7a7231582065b834e6dd20196bff1a235e42fc0949ab766c60ee23abdaf06d607a0d26cb376c6578706572696d656e74616cf564736f6c634300050b0040",
  "source": "pragma solidity 0.5.11;\r\npragma experimental ABIEncoderV2;\r\n\r\n/// @author Hany Salah\r\n/// @title Contrat type fastCoinSide\r\ncontract fastCoinSide {\r\n\r\n/// @notice propriétaire du contrat\r\naddress public owner;\r\n\r\n///@notice  adresse du contrat côté main chain\r\n    address private mainChainContract;\r\n\r\n/// @notice secret qui sera utilisé dans les messages à signer\r\n    string private secret;    \r\n\r\n/// @notice Variable qui recense chaque dépôt ou retrait d'ether\r\n    struct carac {\r\n        uint256 amount;\r\n        uint256 nonce;\r\n    }\r\n    mapping(address => carac) private depositBalance;\r\n    mapping(address => carac) private withdrawBalance;\r\n\r\nconstructor(string memory message) public {\r\n\r\n    owner = msg.sender;\r\n    secret = message;\r\n\r\n    }\r\n\r\n///@notice modifier qui vérifie que le msg.sender = owner\r\n        modifier isOwner() {\r\n            require(msg.sender == owner, \"Vous n'avez pas les droits\");\r\n            _;\r\n        }\r\n\r\n         /// @notice configure l'adresse des contrats\r\n        function setContractAddress(address mainContrat) external isOwner() {\r\n            mainChainContract = mainContrat;\r\n        }\r\n\r\n        /// @notice récupérer ses dépôts\r\n        function transfer(bytes32 message, uint256 amount) external payable {\r\n            bytes32 userMsg = keccak256(abi.encodePacked(msg.sender, amount, depositBalance[msg.sender].nonce + 1, mainChainContract, secret));\r\n            require(userMsg == message, \"Votre message n'est pas correct.\");\r\n                depositBalance[msg.sender].amount = amount;\r\n                depositBalance[msg.sender].nonce ++;\r\n                msg.sender.transfer(amount);\r\n        }\r\n\r\n        /// @notice voir le numéro du dernier dépôt\r\n        function lastDepositNonce() public view returns (uint256) {\r\n            return depositBalance[msg.sender].nonce;\r\n        }\r\n\r\n        /// @notice voir le montant de son dernier dépôt\r\n        function lastDepositAmount() public view returns (uint256) {\r\n            return depositBalance[msg.sender].amount;\r\n        }\r\n\r\n        ///@notice ajouter 1 au nonce: permet de s'aligner avec le nonce de la main chain si besoin\r\n        function updateDepositNonce() external {\r\n            depositBalance[msg.sender].nonce ++;\r\n        }\r\n\r\n        /// @notice effectuer un retrait\r\n        function() external payable {\r\n            withdrawBalance[msg.sender].amount = msg.value;\r\n            withdrawBalance[msg.sender].nonce ++;\r\n        }\r\n\r\n        /// @notice voir le montant de son dernier retrait\r\n        function lastWithdrawAmount() public view returns (uint256) {\r\n            return withdrawBalance[msg.sender].amount;\r\n        }\r\n\r\n        ///@notice voir le numéro du dernier retrait\r\n        function lastWithdrawNonce() public view returns (uint256) {\r\n            return withdrawBalance[msg.sender].nonce;\r\n        }\r\n\r\n        /// @notice Voir le message généré par le retrait\r\n        function generateMessage() public view returns (bytes32) {\r\n           return keccak256(abi.encodePacked(msg.sender, withdrawBalance[msg.sender].amount, withdrawBalance[msg.sender].nonce, this, secret));\r\n        }\r\n}",
  "sourcePath": "C:/Users/admin/Documents/Alyra/ProjetGit/hany-s/projet/testSmartContract/contracts/sideContract.sol",
  "compiler": {
    "name": "solc",
    "version": "0.5.11+commit.c082d0b4.Emscripten.clang"
  },
  "schemaVersion": "3.0.19",
  "updatedAt": "2020-01-10T17:56:51.981Z",
  "devdoc": {
    "methods": {},
    "title": "Contrat type fastCoinSide"
  },
  "userdoc": {
    "methods": {
      "generateMessage()": {
        "notice": "Voir le message généré par le retrait"
      },
      "lastDepositAmount()": {
        "notice": "voir le montant de son dernier dépôt"
      },
      "lastDepositNonce()": {
        "notice": "voir le numéro du dernier dépôt"
      },
      "lastWithdrawAmount()": {
        "notice": "voir le montant de son dernier retrait"
      },
      "lastWithdrawNonce()": {
        "notice": "voir le numéro du dernier retrait"
      },
      "setContractAddress(address)": {
        "notice": "configure l'adresse des contrats"
      },
      "transfer(bytes32,uint256)": {
        "notice": "récupérer ses dépôts"
      },
      "updateDepositNonce()": {
        "notice": "ajouter 1 au nonce: permet de s'aligner avec le nonce de la main chain si besoin"
      }
    }
  }
}